:020000040800F2
:1000000000000320650D0008B50C0008BB0C0008BB
:10001000C10C0008C70C0008CD0C0008000000004F
:10002000000000000000000000000000D30C0008E9
:10003000E10C000800000000EF0C0008FD0C0008B7
:10004000B50D0008B50D0008B50D0008B50D000888
:10005000B50D0008B50D0008B50D0008B50D000878
:10006000B50D0008B50D0008B50D0008B50D000868
:10007000B50D0008B50D0008B50D0008B50D000858
:10008000B50D0008B50D0008B50D0008B50D000848
:10009000B50D0008B50D0008B50D0008B50D000838
:1000A000B50D0008B50D0008B50D0008B50D000828
:1000B000B50D0008090D0008B50D0008B50D0008C4
:1000C000B50D0008B50D0008B50D0008B50D000808
:1000D000B50D0008B50D0008B50D0008B50D0008F8
:1000E0001D0D0008B50D0008B50D0008B50D000880
:1000F000B50D0008B50D0008B50D0008B50D0008D8
:10010000B50D0008B50D0008B50D0008B50D0008C7
:10011000B50D0008B50D0008B50D0008B50D0008B7
:10012000B50D0008B50D0008B50D0008B50D0008A7
:10013000B50D0008B50D0008B50D0008B50D000897
:10014000B50D0008B50D0008B50D0008B50D000887
:10015000B50D0008B50D0008B50D0008B50D000877
:10016000B50D0008B50D0008B50D0008B50D000867
:10017000B50D0008B50D0008B50D00080000000021
:10018000B50D0008B50D0008B50D0008B50D000847
:10019000B50D0008B50D0008B50D0008B50D000837
:0C01A000B50D0008B50D0008B50D0008F5
:1001AC0010B5054C237833B9044B13B10448AFF3A5
:1001BC0000800123237010BD4C00002000000000C3
:1001CC001431000808B5034B1BB103490348AFF3C6
:1001DC00008008BD00000000500000201431000811
:1001EC0053B94AB9002908BF00281CBF4FF0FF3192
:1001FC004FF0FF3000F070B9ADF1080C6DE904CE92
:10020C0000F006F8DDF804E0DDE9022304B07047E5
:10021C002DE9F047089E0D4604460F46002B4AD1A7
:10022C008A42944665D9B2FA82F343B102FA03FCCE
:10023C00C3F120029F4020FA02F217439C404FEA80
:10024C001C4E1FFA8CF5B7FBFEF1220C0EFB11773E
:10025C0042EA074201FB05F090420AD91CEB02026C
:10026C0001F1FF3780F01C81904240F21981023974
:10027C006244121AA4B2B2FBFEF00EFB102244EA46
:10028C00024400FB05F5A5420AD91CEB040400F15D
:10029C00FF3280F00781A54240F2048164440238A9
:1002AC0040EA0140641B00211EB1DC400023C6E97A
:1002BC000043BDE8F0878B4208D9002E00F0ED809A
:1002CC000021C6E900050846BDE8F087B3FA83F1C2
:1002DC00002949D1AB4202D3824200F2F880841A41
:1002EC0065EB030201201746002EE2D0C6E9004759
:1002FC00DFE702B9FFDEB2FA82F3002B40F0908008
:10030C008A1A4FEA1C471FFA8CFE0121B2FBF7F543
:10031C0007FB1520220C42EA00420EFB05F090422E
:10032C0008D91CEB020205F1FF3802D2904200F210
:10033C00CB804546121AA4B2B2FBF7F007FB102291
:10034C0044EA02440EFB00FEA64508D91CEB04044B
:10035C0000F1FF3202D2A64500F2BB801046A4EB9E
:10036C000E0440EA05409FE7C1F120078B4022FABA
:10037C0007FC4CEA030C05FA01F420FA07F3FD40E4
:10038C004FEA1C492343B5FBF9F81FFA8CFE09FB15
:10039C0018551C0C44EA054408FB0EF5A54202FA5C
:1003AC0001F200FA01F00BD91CEB040408F1FF3A3E
:1003BC0080F08880A54240F28580A8F10208644450
:1003CC00641B9DB2B4FBF9F309FB134445EA0444E6
:1003DC0003FB0EFEA64508D91CEB040403F1FF3504
:1003EC006CD2A6456AD9023B644443EA0843A3FB9A
:1003FC000295A4EB0E04AC42C846AE4656D353D07D
:10040C0056B1B0EB080264EB0E0404FA07F7CA40CD
:10041C00CC401743C6E9007418460021BDE8F087AC
:10042C00C3F1200102FA03FC20FA01F225FA01F1D2
:10043C009D402A434FEA1C471FFA8CFEB1FBF7F094
:10044C0007FB1015110C41EA054100FB0EF58D421E
:10045C0004FA03F408D91CEB010100F1FF382FD288
:10046C008D422DD902386144491B92B2B1FBF7F58C
:10047C0007FB151142EA014205FB0EF1914208D926
:10048C001CEB020205F1FF3816D2914214D9023D41
:10049C006244521A45EA004138E73146304608E7D3
:1004AC003946E6E61046FBE64845A9D2B9EB020808
:1004BC0065EB0C0E013BA3E74546EAE72B4694E7B8
:1004CC004046D1E7D0467BE7023D624432E708461E
:1004DC000AE76444023842E7704700BF80B582B037
:1004EC0000AF7860384B00221A60384B0F221A602C
:1004FC0020E0364B1B685A1E344B1B68344951F8AC
:10050C002220334941F82320304B1B68304A52F8E3
:10051C0023302E4A12682F4951F8222003FB02F295
:10052C00294B1B681344284A1360284B1B68013B5A
:10053C00264A1360254B1B68002BDADC264800F09A
:10054C00EBFC6421244800F0B9FD234800F041FE87
:10055C000346A3F500631A461D4B1A601C4B1B681F
:10056C001C4A126803FB02F2174B1B681344164A11
:10057C001360154B1B68194A82FB03121213DB170D
:10058C00D31A03F50063164A1360154B1B6800223F
:10059C001021144801F0DDF9134B1B8801339AB27A
:1005AC00114B1A80104B1B8842F21072934207D1E8
:1005BC000D4B00221A804FF480410C4801F003FCD3
:1005CC0000BF0837BD4680BD14010020100100207B
:1005DC00240100200000002068000020AD8BDB68A7
:1005EC0018010020B00000201C010020001802405F
:1005FC0080B500AF00F0DAFB00F02CF800F064F9E5
:10060C0000F098F800F0E8F800F010F90D4B00221B
:10061C001A600AE00B4B1B680B4A002142F82310AE
:10062C00084B1B680133074A1360064B1B680E2BE3
:10063C00F0DD1021054801F03AF9054802F006F901
:10064C00FEE700BF0C01002024010020B0000020B8
:10065C00C400002080B594B000AF07F12003302215
:10066C000021184602F024FD07F10C0300221A6049
:10067C005A609A60DA601A610023BB602B4B1B6CCA
:10068C002A4A43F080531364284B1B6C03F08053AD
:10069C00BB60BB6800237B60254B1B68244A43F47A
:1006AC0040431360224B1B6803F440437B607B6820
:1006BC0002233B620123FB6210233B630223BB63D7
:1006CC000023FB6308233B64B4237B640223BB64D9
:1006DC000423FB6407F12003184601F003FC0346D6
:1006EC00002B01D000F002FA01F0ACFB0346002B0A
:1006FC0001D000F0FBF90F23FB6002233B610023C8
:10070C007B614FF4A053BB614FF48053FB6107F145
:10071C000C030521184601F05DFE0346002B01D0A9
:10072C0000F0E4F900BF5037BD4680BD00380240F0
:10073C000070004080B584B000AF3B4600221A60C8
:10074C005A609A60DA60214B214A1A601F4B4FF4B1
:10075C0080325A601D4B00229A601C4B00221A6199
:10076C001A4B00221A76194B002283F82020174BC3
:10077C000022DA62154B174A9A62144B0022DA6097
:10078C00124B0122DA61114B002283F830200F4BFF
:10079C0001225A610D4800F07BFB0346002B01D06F
:1007AC0000F0A4F900233B6001237B600023BB60B5
:1007BC003B461946054800F019FD0346002B01D0B5
:1007CC0000F094F900BF1037BD4680BD68000020D2
:1007DC00002001400100000F80B582B000AF3B4605
:1007EC0000221A605A600F4B0F4A1A600D4801F034
:1007FC003CF80346002B01D000F078F900233B6055
:10080C0000237B603B4610221946064801F0C6F8CF
:10081C000346002B01D000F069F900BF0837BD4634
:10082C0080BD00BFB00000200074004080B586B0D1
:10083C0000AF07F1080300221A605A609A60DA6070
:10084C003B4600221A605A601D4B1E4A1A601C4B14
:10085C0005225A601A4B00229A60194B40F2DB2297
:10086C00DA60174B00221A61154B00229A6114486A
:10087C0001F09CFF0346002B01D000F037F94FF438
:10088C008053BB6007F1080319460D4802F056F976
:10089C000346002B01D000F029F900233B60002314
:1008AC007B603B461946064802F072FB0346002B60
:1008BC0001D000F01BF900BF1837BD4680BD00BF4A
:1008CC00C40000200004004080B58CB000AF07F1DC
:1008DC001C0300221A605A609A60DA601A610023C5
:1008EC00BB617B4B1B6B7A4A43F020031363784B41
:1008FC001B6B03F02003BB61BB6900237B61744B52
:10090C001B6B734A43F080031363714B1B6B03F037
:10091C0080037B617B6900233B616D4B1B6B6C4AD5
:10092C0043F0040313636A4B1B6B03F004033B613A
:10093C003B690023FB60664B1B6B654A43F001036C
:10094C001363634B1B6B03F00103FB60FB68002319
:10095C00BB605F4B1B6B5E4A43F0020313635C4B43
:10096C001B6B03F00203BB60BB6800237B60584B1E
:10097C001B6B574A43F008031363554B1B6B03F077
:10098C0008037B607B6800233B60514B1B6B504A18
:10099C0043F0400313634E4B1B6B03F040033B606F
:1009AC003B68012204214B4801F0F4F900224FF47A
:1009BC004051494801F0EEF900224FF4C04147483C
:1009CC0001F0E8F94FF46073FB6102233B620023F2
:1009DC007B620323BB620523FB6207F11C031946F0
:1009EC003F4801F02BF80423FB6101233B620023F9
:1009FC007B620323BB6207F11C031946354801F0E7
:100A0C001DF80423FB6100233B6201237B6207F189
:100A1C001C031946334801F011F84FF44053FB61A5
:100A2C0001233B6200237B620323BB6207F11C039F
:100A3C001946294801F002F84FF40073FB611223A8
:100A4C003B6200237B620223BB620423FB6207F13F
:100A5C001C0319461F4800F0F1FF4FF48073FB6133
:100A6C0012233B6200237B620223BB620423FB62E2
:100A7C0007F11C0319461C4800F0E0FF4FF400433B
:100A8C00FB614FF404133B6201237B6207F11C03EF
:100A9C001946154800F0D2FF4FF4C043FB61012307
:100AAC003B6200237B620023BB6207F11C031946E7
:100ABC000A4800F0C3FF00220021282000F09FFE0E
:100ACC00282000F0B8FE00BF3037BD4680BD00BF07
:100ADC000038024000080240000C0240001802409E
:100AEC0000140240000402400000024080B400AF39
:100AFC0072B600BFFEE7000080B483B000AF0023E5
:100B0C007B60104B5B6C0F4A43F4804353640D4B7A
:100B1C005B6C03F480437B607B6800233B60094B78
:100B2C001B6C084A43F080531364064B1B6C03F098
:100B3C0080533B603B6800BF0C37BD465DF8047BBF
:100B4C00704700BF0038024080B58AB000AF7860B3
:100B5C0007F1140300221A605A609A60DA601A6175
:100B6C007B681B68174A934227D100233B61164BC5
:100B7C005B6C154A43F480735364134B5B6C03F446
:100B8C0080733B613B690023FB600F4B1B6B0E4A70
:100B9C0043F0010313630C4B1B6B03F00103FB606D
:100BAC00FB6801237B610323BB610023FB6107F11D
:100BBC0014031946054800F041FF00BF2837BD4615
:100BCC0080BD00BF00200140003802400000024000
:100BDC0080B58AB000AF786007F1140300221A6068
:100BEC005A609A60DA601A617B681B68174A9342F4
:100BFC0027D100233B61164B1B6C154A43F0005365
:100C0C001364134B1B6C03F000533B613B690023D3
:100C1C00FB600F4B1B6B0E4A43F0010313630C4B31
:100C2C001B6B03F00103FB60FB6830237B61032328
:100C3C00BB610023FB6107F114031946054800F062
:100C4C00FDFE00BF2837BD4680BD00BF00740040CC
:100C5C00003802400000024080B584B000AF7860DC
:100C6C007B681B680E4A934215D10023FB600D4B29
:100C7C001B6C0C4A43F0020313640A4B1B6C03F00D
:100C8C000203FB60FB68002200211D2000F0B7FD71
:100C9C001D2000F0D0FD00BF1037BD4680BD00BF49
:100CAC00000400400038024080B400AFFEE780B47E
:100CBC0000AFFEE780B400AFFEE780B400AFFEE704
:100CCC0080B400AFFEE780B400AF00BFBD465DF856
:100CDC00047B704780B400AF00BFBD465DF8047B59
:100CEC00704780B400AF00BFBD465DF8047B704711
:100CFC0080B500AF00F0ACF800BF80BD80B500AF90
:100D0C00024801F013FE00BF80BD00BFC4000020EC
:100D1C0080B500AF064B1B68002B02D1044B01229F
:100D2C001A604FF4004001F069F800BF80BD00BFAD
:100D3C002001002080B400AF064BD3F88830054A60
:100D4C0043F47003C2F8883000BFBD465DF8047BE5
:100D5C00704700BF00ED00E0DFF834D00D480E49BD
:100D6C000E4A002302E0D458C4500433C4188C42F9
:100D7C00F9D30B4A0B4C002301E013600432A2425E
:100D8C00FBD3FFF7D7FF02F09BF9FFF731FC70475D
:100D9C0000000320000000204C0000204C31000813
:100DAC004C000020F0010020FEE7000080B500AFF1
:100DBC000E4B1B680D4A43F4007313600B4B1B68FE
:100DCC000A4A43F480631360084B1B68074A43F4D8
:100DDC0080731360032000F007FD0F2000F008F86B
:100DEC00FFF78AFE0023184680BD00BF003C02407E
:100DFC0080B582B000AF7860124B1A68124B1B782A
:100E0C0019464FF47A73B3FBF1F3B2FBF3F31846C4
:100E1C0000F01FFD0346002B01D001230EE07B6880
:100E2C000F2B0AD8002279684FF0FF3000F0E7FC56
:100E3C00064A7B681360002300E00123184608373C
:100E4C00BD4680BD4000002048000020440000202A
:100E5C0080B400AF064B1B781A46064B1B68134434
:100E6C00044A136000BFBD465DF8047B704700BFA9
:100E7C0048000020EC01002080B400AF034B1B683D
:100E8C001846BD465DF8047B704700BFEC0100209E
:100E9C0080B584B000AF78600023FB737B68002BB7
:100EAC0001D1012333E07B681B6C002B09D17868DE
:100EBC00FFF74AFE7B6800225A647B68002283F8A5
:100ECC003C207B681B6C03F01003002B18D17B6853
:100EDC001B6C23F4885323F0020343F002027B685B
:100EEC001A64786800F0B4FA7B6800225A647B6854
:100EFC001B6C23F0030343F001027B681A6401E0CE
:100F0C000123FB737B68002283F83C20FB7B184693
:100F1C001037BD4680BD000080B485B000AF78604E
:100F2C000023BB607B6893F83C30012B01D102237A
:100F3C00B2E07B68012283F83C207B681B689B68CD
:100F4C0003F00103012B18D07B681B689A687B683F
:100F5C001B6842F001029A60524B1B68524AA2FB7A
:100F6C0003239A0C13465B001344BB6002E0BB687E
:100F7C00013BBB60BB68002BF9D17B681B689B688D
:100F8C0003F00103012B7AD17B681B6C23F4E06323
:100F9C0023F0010343F480727B681A647B681B683E
:100FAC005B6803F48063002B07D07B681B6C23F415
:100FBC00405343F480527B681A647B681B6C03F4C7
:100FCC008053B3F5805F06D17B685B6C23F006021F
:100FDC007B685A6402E07B6800225A647B680022BA
:100FEC0083F83C20314BFB607B681B686FF022025E
:100FFC001A60FB685B6803F01F03002B2AD17B6827
:10100C001B682B4A934215D07B681B68294A934274
:10101C0005D1264B5B6803F01F03002B0AD07B68BD
:10102C001B68254A934236D1204B5B6803F01003B2
:10103C00002B30D17B681B689B6803F04053002B5E
:10104C0029D17B681B689A687B681B6842F08042D8
:10105C009A6020E07B681B68154A93421BD17B6821
:10106C001B689B6803F04053002B14D17B681B68F2
:10107C009A687B681B6842F080429A600BE07B6840
:10108C001B6C43F010027B681A647B685B6C43F04A
:10109C0001027B685A64002318461437BD465DF87C
:1010AC00047B70474000002083DE1B43002301407B
:1010BC0000200140002101400022014080B584B095
:1010CC0000AF786039600023FB607B681B689B680D
:1010DC0003F48063B3F5806F13D17B681B689B6846
:1010EC0003F48073B3F5807F0BD17B681B6C43F0EA
:1010FC0020027B681A647B68002283F83C20012361
:10110C0063E0FFF7B9FEF86021E03B68B3F1FF3F05
:10111C001DD03B68002B07D0FFF7AEFE0246FB68E4
:10112C00D31A3A689A4212D27B681B681B6803F088
:10113C000203022B0BD07B681B6C43F004027B6810
:10114C001A647B68002283F83C2003233DE07B6813
:10115C001B681B6803F00203022BD6D17B681B684B
:10116C006FF012021A607B681B6C43F400727B6890
:10117C001A647B681B689B6803F04053002B23D1D7
:10118C007B681B7E002B1FD17B681B68DB6A03F41A
:10119C007003002B06D07B681B689B6803F480638C
:1011AC00002B11D17B681B6C23F480727B681A6452
:1011BC007B681B6C03F48053002B05D17B681B6C84
:1011CC0043F001027B681A64002318461037BD46B1
:1011DC0080BD80B483B000AF78607B681B68DB6C2B
:1011EC0018460C37BD465DF8047B704780B485B05B
:1011FC0000AF786039600023BB607B6893F83C30AB
:10120C00012B01D1022313E17B68012283F83C20DE
:10121C003B681B68092B25D97B681B68D9683B6820
:10122C001B689BB21A4613465B0013441E3B0722F5
:10123C0002FA03F3DA437B681B680A40DA607B68C6
:10124C001B68D9683B689A683B681B689BB2184658
:10125C0003465B0003441E3B9A407B681B680A43B1
:10126C00DA6022E07B681B6819693B681B689BB2DB
:10127C001A4613465B001344072202FA03F3DA43BF
:10128C007B681B680A401A617B681B6819693B689C
:10129C009A683B681B689BB2184603465B00034484
:1012AC009A407B681B680A431A613B685B68062B93
:1012BC0024D87B681B68596B3B685A6813469B00A3
:1012CC001344053B1F2202FA03F3DA437B681B68C5
:1012DC000A405A637B681B68596B3B681B689BB25E
:1012EC0018463B685A6813469B001344053B00FAAA
:1012FC0003F27B681B680A435A634CE03B685B68EB
:10130C000C2B24D87B681B68196B3B685A681346F6
:10131C009B001344233B1F2202FA03F3DA437B683E
:10132C001B680A401A637B681B68196B3B681B6857
:10133C009BB218463B685A6813469B001344233BE8
:10134C0000FA03F27B681B680A431A6323E07B688C
:10135C001B68D96A3B685A6813469B001344413B8F
:10136C001F2202FA03F3DA437B681B680A40DA6235
:10137C007B681B68D96A3B681B689BB218463B6844
:10138C005A6813469B001344413B00FA03F27B68F6
:10139C001B680A43DA62294BFB607B681B68284A8E
:1013AC0093420FD13B681B68122B0BD1FB685B6817
:1013BC0023F40002FB685A60FB685B6843F480020C
:1013CC00FB685A607B681B681D4A93422BD13B68B3
:1013DC001B681C4A934203D03B681B68112B22D11B
:1013EC00FB685B6823F48002FB685A60FB685B68EF
:1013FC0043F40002FB685A603B681B68114A934235
:10140C0011D1114B1B68114AA2FB03239A0C1346F2
:10141C009B0013445B00BB6002E0BB68013BBB60FC
:10142C00BB68002BF9D17B68002283F83C20002399
:10143C0018461437BD465DF8047B70470023014005
:10144C0000200140120000104000002083DE1B43EE
:10145C0080B485B000AF7860794BFB60FB685B684B
:10146C0023F44032FB685A60FB685A687B685B68FF
:10147C001A43FB685A607B681B685A687B681B6858
:10148C0022F480725A607B681B6859687B681B6900
:10149C001A027B681B680A435A607B681B685A688F
:1014AC007B681B6822F040725A607B681B68596825
:1014BC007B689A687B681B680A435A607B681B6868
:1014CC009A687B681B6822F400629A607B681B68D0
:1014DC0099687B68DA687B681B680A439A607B684A
:1014EC009B6A584A934222D07B681B689A687B6837
:1014FC001B6822F070629A607B681B6899687B6835
:10150C009A6A7B681B680A439A607B681B689A68B6
:10151C007B681B6822F040529A607B681B68996854
:10152C007B68DA6A7B681B680A439A600FE07B6809
:10153C001B689A687B681B6822F070629A607B68F3
:10154C001B689A687B681B6822F040529A607B6823
:10155C001B689A687B681B6822F002029A607B68A1
:10156C001B6899687B681B7E5A007B681B680A4362
:10157C009A607B6893F82030002B1BD07B681B682B
:10158C005A687B681B6842F400625A607B681B686F
:10159C005A687B681B6822F460425A607B681B683F
:1015AC0059687B685B6A013B5A037B681B680A437A
:1015BC005A6007E07B681B685A687B681B6822F4DA
:1015CC0000625A607B681B68DA6A7B681B6822F4CD
:1015DC007002DA627B681B68D96A7B68DB69013B45
:1015EC001A057B681B680A43DA627B681B689A6879
:1015FC007B681B6822F400729A607B681B68996890
:10160C007B6893F830305A027B681B680A439A60F7
:10161C007B681B689A687B681B6822F480629A60FE
:10162C007B681B6899687B685B699A027B681B689E
:10163C000A439A6000BF1437BD465DF8047B7047BF
:10164C00002301400100000F80B485B000AF78602A
:10165C007B6803F00703FB600C4BDB68BB60BA686C
:10166C004FF6FF031340BB60FB681A02BB681343C1
:10167C0043F0BF6343F40033BB60044ABB68D360E0
:10168C0000BF1437BD465DF8047B704700ED00E0E9
:10169C0080B400AF044BDB681B0A03F00703184649
:1016AC00BD465DF8047B704700ED00E080B483B06C
:1016BC0000AF0346FB7197F90730002B0BDBFB796E
:1016CC0003F01F02074997F907305B09012000FA64
:1016DC0002F241F8232000BF0C37BD465DF8047BB5
:1016EC00704700BF00E100E080B483B000AF034658
:1016FC003960FB7197F90730002B0ADB3B68DAB2D3
:10170C000C4997F907301201D2B20B4483F800232D
:10171C000AE03B68DAB20849FB7903F00F03043B9B
:10172C001201D2B20B441A7600BF0C37BD465DF8DD
:10173C00047B704700E100E000ED00E080B489B06C
:10174C0000AFF860B9607A60FB6803F00703FB61D7
:10175C00FB69C3F10703042B28BF0423BB61FB699E
:10176C000433062B02D9FB69033B00E000237B61A9
:10177C004FF0FF32BB6902FA03F3DA43BB681A403D
:10178C007B699A404FF0FF317B6901FA03F3D9432F
:10179C007B680B40134318462437BD465DF8047B29
:1017AC007047000080B582B000AF78607B68013B69
:1017BC00B3F1807F01D301230FE00A4A7B68013B20
:1017CC0053600F214FF0FF30FFF78EFF054B0022C7
:1017DC009A60044B07221A60002318460837BD464E
:1017EC0080BD00BF10E000E080B582B000AF786033
:1017FC007868FFF729FF00BF0837BD4680BD80B56C
:10180C0086B000AF0346B9607A60FB7300237B613E
:10181C00FFF73EFF78617A68B9687869FFF78EFF49
:10182C00024697F90F3011461846FFF75DFF00BFCF
:10183C001837BD4680BD80B582B000AF0346FB7142
:10184C0097F907301846FFF731FF00BF0837BD4640
:10185C0080BD80B582B000AF78607868FFF7A2FFDA
:10186C00034618460837BD4680BD80B582B000AF30
:10187C0078607B68002B01D1012314E07B681B7915
:10188C00DBB2002B05D17B6800225A717868FFF718
:10189C009FF97B6802221A717B6800221A617B68AF
:1018AC0001221A71002318460837BD4680BD80B44A
:1018BC0083B000AF786039607B685B79012B01D114
:1018CC00022340E07B6801225A717B6802221A7164
:1018DC007B681B6819683B6803F0100301229A406F
:1018EC007B681B680A431A603B68002B0FD17B682E
:1018FC001B681B6803F03C033C2B1DD17B681B68E9
:10190C005A687B681B6842F001025A6014E07B68DD
:10191C001B681B6803F470123B6803F010033C2136
:10192C0001FA03F39A4207D17B681B685A687B68FB
:10193C001B6842F002025A607B6801221A717B68B4
:10194C0000225A71002318460C37BD465DF8047B03
:10195C00704780B487B000AFF860B9607A603B60C4
:10196C0000237B61FB681B687B61BB68002B05D186
:10197C007A697B68134408337B6104E07A697B687D
:10198C00134414337B617B691A463B681360002354
:10199C0018461C37BD465DF8047B704780B487B091
:1019AC0000AFF860B9607A60FB685B79012B01D1FC
:1019BC0002233CE0FB6801225A71FB6802221A7177
:1019CC00FB681B681B687B617B6803F0100340F6A7
:1019DC00FE7202FA03F3DB437A6913407B61BB6846
:1019EC001A68BB685B6813433B617B6803F01003A8
:1019FC003A6902FA03F37A6913437B61FB681B684B
:101A0C007A691A60FB681B6819687B6803F010031D
:101A1C00C02202FA03F3DA43FB681B680A401A601F
:101A2C00FB6801221A71FB6800225A7100231846C8
:101A3C001C37BD465DF8047B7047000080B489B04C
:101A4C0000AF7860396000237B6100233B61002389
:101A5C00BB610023FB6177E10122FB6902FA03F30E
:101A6C007B613B681B687A6913403B613A697B690F
:101A7C009A4240F066813B685B6803F00303012BDC
:101A8C0005D03B685B6803F00303022B30D17B6805
:101A9C009B68BB61FB695B00032202FA03F3DB4327
:101AAC00BA691340BB613B68DA68FB695B0002FAF8
:101ABC0003F3BA691343BB617B68BA699A607B68AC
:101ACC005B68BB610122FB6902FA03F3DB43BA6971
:101ADC001340BB613B685B681B0903F00102FB69A7
:101AEC0002FA03F3BA691343BB617B68BA695A60A3
:101AFC003B685B6803F00303032B17D07B68DB6840
:101B0C00BB61FB695B00032202FA03F3DB43BA6996
:101B1C001340BB613B689A68FB695B0002FA03F3F4
:101B2C00BA691343BB617B68BA69DA603B685B686E
:101B3C0003F00303022B23D1FB69DA087B6808321C
:101B4C0053F82230BB61FB6903F007039B000F22A3
:101B5C0002FA03F3DB43BA691340BB613B681A69B1
:101B6C00FB6903F007039B0002FA03F3BA69134302
:101B7C00BB61FB69DA087B680832B96943F822104B
:101B8C007B681B68BB61FB695B00032202FA03F3F1
:101B9C00DB43BA691340BB613B685B6803F003022B
:101BAC00FB695B0002FA03F3BA691343BB617B6800
:101BBC00BA691A603B685B6803F44033002B00F091
:101BCC00C0800023FB60664B5B6C654A43F480432A
:101BDC005364634B5B6C03F48043FB60FB68614AAA
:101BEC00FB699B08023352F82330BB61FB6903F09D
:101BFC0003039B000F2202FA03F3DB43BA69134081
:101C0C00BB617B68584A934237D07B68574A9342F2
:101C1C0031D07B68564A93422BD07B68554A93420D
:101C2C0025D07B68544A93421FD07B68534A934219
:101C3C0019D07B68524A934213D07B68514A934225
:101C4C000DD07B68504A934207D07B684F4A934231
:101C5C0001D1092312E00A2310E008230EE0072328
:101C6C000CE006230AE0052308E0042306E0032326
:101C7C0004E0022302E0012300E00023FA6902F0F1
:101C8C00030292009340BA691343BB613549FB6967
:101C9C009B080233BA6941F823203D4B9B68BB611A
:101CAC003B69DB43BA691340BB613B685B6803F477
:101CBC008013002B03D0BA693B691343BB61344AD0
:101CCC00BB699360324BDB68BB613B69DB43BA6930
:101CDC001340BB613B685B6803F40013002B03D01B
:101CEC00BA693B691343BB61294ABB69D360284B72
:101CFC005B68BB613B69DB43BA691340BB613B6802
:101D0C005B6803F40033002B03D0BA693B691343BF
:101D1C00BB611F4ABB6953601D4B1B68BB613B69B0
:101D2C00DB43BA691340BB613B685B6803F48033E7
:101D3C00002B03D0BA693B691343BB61144ABB69DE
:101D4C001360FB690133FB61FB690F2B7FF684AEDB
:101D5C0000BF00BF2437BD465DF8047B704700BF51
:101D6C0000380240003801400000024000040240EC
:101D7C0000080240000C0240001002400014024017
:101D8C0000180240001C02400020024000240240C7
:101D9C00003C014080B483B000AF78600B467B8080
:101DAC0013467B707B78002B03D07A887B689A6112
:101DBC0003E07B881A047B689A6100BF0C37BD4630
:101DCC005DF8047B704780B485B000AF78600B463B
:101DDC007B807B685B69FB607A88FB6813401A0424
:101DEC00FB68D9437B880B401A437B689A6100BF20
:101DFC001437BD465DF8047B7047000080B582B097
:101E0C0000AF0346FB80084B5A69FB881340002B3C
:101E1C0006D0054AFB885361FB88184600F006F88B
:101E2C0000BF0837BD4680BD003C014080B483B084
:101E3C0000AF0346FB8000BF0C37BD465DF8047B4A
:101E4C007047000080B582B000AF00237B60002398
:101E5C003B60204B1B6C1F4A43F0805313641D4B9B
:101E6C001B6C03F080533B603B681B4B01221A60D8
:101E7C00FFF702F8786009E0FEF7FEFF02467B6888
:101E8C00D31AB3F57A7F01D903231FE0134B5B6898
:101E9C0003F48033B3F5803FEED1114B01221A606D
:101EAC00FEF7EAFF786009E0FEF7E6FF02467B6882
:101EBC00D31AB3F57A7F01D9032307E0074B5B688C
:101ECC0003F40033B3F5003FEED100231846083776
:101EDC00BD4680BD0038024040000E4200700040FC
:101EEC0044000E4280B586B000AF78607B68002B52
:101EFC0001D1012367E27B681B6803F00103002B0F
:101F0C0075D0884B9B6803F00C03042B0CD0854BCD
:101F1C009B6803F00C03082B12D1824B5B6803F413
:101F2C008003B3F5800F0BD17E4B1B6803F4003399
:101F3C00002B5BD07B685B68002B57D1012342E2FE
:101F4C007B685B68B3F5803F06D1764B1B68754A9E
:101F5C0043F4803313601DE07B685B68B3F5A02FFE
:101F6C000CD1704B1B686F4A43F4802313606D4B8C
:101F7C001B686C4A43F4803313600BE0694B1B689D
:101F8C00684A23F480331360664B1B68654A23F45C
:101F9C00802313607B685B68002B13D0FEF76CFF0B
:101FAC00386108E0FEF768FF02463B69D31A642BE0
:101FBC0001D9032307E25B4B1B6803F40033002BAE
:101FCC00F0D014E0FEF758FF386108E0FEF754FF3C
:101FDC0002463B69D31A642B01D90323F3E1514B1D
:101FEC001B6803F40033002BF0D100E000BF7B68CA
:101FFC001B6803F00203002B63D04A4B9B6803F071
:10200C000C03002B0BD0474B9B6803F00C03082BE5
:10201C001CD1444B5B6803F48003002B16D1414B5D
:10202C001B6803F00203002B05D07B68DB68012BD7
:10203C0001D00123C7E13B4B1B6823F0F8027B68FE
:10204C001B69DB00374913430B603AE07B68DB68A4
:10205C00002B20D0344B01221A60FEF70DFF3861A3
:10206C0008E0FEF709FF02463B69D31A022B01D99F
:10207C000323A8E12B4B1B6803F00203002BF0D0C9
:10208C00284B1B6823F0F8027B681B69DB00254991
:10209C0013430B6015E0244B00221A60FEF7ECFE94
:1020AC00386108E0FEF7E8FE02463B69D31A022BC2
:1020BC0001D9032387E11B4B1B6803F00203002BA0
:1020CC00F0D17B681B6803F00803002B36D07B68CB
:1020DC005B69002B16D0154B01221A60FEF7CCFE63
:1020EC00386108E0FEF7C8FE02463B69D31A022BA2
:1020FC0001D9032367E10B4B5B6F03F00203002B49
:10210C00F0D01BE0094B00221A60FEF7B5FE3861D7
:10211C000EE0FEF7B1FE02463B69D31A022B07D93B
:10212C00032350E10038024000004742800E474232
:10213C00884B5B6F03F00203002BEAD17B681B68B2
:10214C0003F00403002B00F097800023FB75814BF8
:10215C001B6C03F08053002B0FD10023BB607D4B15
:10216C001B6C7C4A43F0805313647A4B1B6C03F05A
:10217C008053BB60BB680123FB75774B1B6803F472
:10218C008073002B18D1744B1B68734A43F4807313
:10219C001360FEF771FE386108E0FEF76DFE024633
:1021AC003B69D31A022B01D903230CE16A4B1B6840
:1021BC0003F48073002BF0D07B689B68012B06D155
:1021CC00644B1B6F634A43F0010313671CE07B688D
:1021DC009B68052B0CD15F4B1B6F5E4A43F00403CD
:1021EC0013675C4B1B6F5B4A43F0010313670BE0F7
:1021FC00584B1B6F574A23F001031367554B1B6F4A
:10220C00544A23F0040313677B689B68002B15D09A
:10221C00FEF732FE38610AE0FEF72EFE02463B69FD
:10222C00D31A41F28832934201D90323CBE0494BB4
:10223C001B6F03F00203002BEED014E0FEF71CFE24
:10224C0038610AE0FEF718FE02463B69D31A41F2E8
:10225C008832934201D90323B5E03E4B1B6F03F048
:10226C000203002BEED1FB7D012B05D1394B1B6CEE
:10227C00384A23F0805313647B689B69002B00F071
:10228C00A180344B9B6803F00C03082B5CD07B685B
:10229C009B69022B41D1314B00221A60FEF7ECFDF9
:1022AC00386108E0FEF7E8FD02463B69D31A022BC1
:1022BC0001D9032387E0274B1B6803F00073002B25
:1022CC00F0D17B68DA697B681B6A1A437B685B6AAE
:1022DC009B011A437B689B6A5B08013B1B041A43F6
:1022EC007B68DB6A1B061B4913434B601B4B0122AB
:1022FC001A60FEF7C1FD386108E0FEF7BDFD02462D
:10230C003B69D31A022B01D903235CE0114B1B68E8
:10231C0003F00073002BF0D054E0104B00221A6035
:10232C00FEF7AAFD386108E0FEF7A6FD02463B6900
:10233C00D31A022B01D9032345E0064B1B6803F08B
:10234C000073002BF0D13DE07B689B69012B07D11A
:10235C00012338E000380240007000406000474222
:10236C001B4B5B68FB607B689B69012B28D0FB686F
:10237C0003F480027B68DB699A4221D1FB6803F08D
:10238C003F027B681B6A9A421AD1FA6847F6C073FF
:10239C0013407A68526A9201934211D1FB6803F49C
:1023AC0040327B689B6A5B08013B1B049A4207D155
:1023BC00FB6803F070627B68DB6A1B069A4201D0F3
:1023CC00012300E0002318461837BD4680BD00BF2E
:1023DC000038024080B584B000AF786039607B680B
:1023EC00002B01D10123CCE0684B1B6803F00F03D9
:1023FC003A689A420CD9654B3A68D2B21A70634B60
:10240C001B6803F00F033A689A4201D00123B8E02D
:10241C007B681B6803F00203002B20D07B681B68D1
:10242C0003F00403002B05D0594B9B68584A43F426
:10243C00E05393607B681B6803F00803002B05D006
:10244C00534B9B68524A43F460439360504B9B68D8
:10245C0023F0F0027B689B684D4913438B607B68CB
:10246C001B6803F00103002B44D07B685B68012BD5
:10247C0007D1474B1B6803F40033002B19D1012300
:10248C007FE07B685B68022B03D07B685B68032B67
:10249C0007D13F4B1B6803F00073002B09D10123BC
:1024AC006FE03B4B1B6803F00203002B01D10123AF
:1024BC0067E0374B9B6823F003027B685B68344909
:1024CC0013438B60FEF7D8FCF8600AE0FEF7D4FCEF
:1024DC000246FB68D31A41F28832934201D9032396
:1024EC004FE02B4B9B6803F00C027B685B689B00F6
:1024FC009A42EBD1254B1B6803F00F033A689A42C2
:10250C000CD2224B3A68D2B21A70204B1B6803F0E3
:10251C000F033A689A4201D0012332E07B681B68B2
:10252C0003F00403002B08D0194B9B6823F4E052F2
:10253C007B68DB68164913438B607B681B6803F070
:10254C000803002B09D0124B9B6823F460427B6874
:10255C001B69DB000E4913438B6000F021F8024627
:10256C000B4B9B681B0903F00F030A49CB5C22FA47
:10257C0003F3094A1360094B1B681846FEF738FC35
:10258C00002318461037BD4680BD00BF003C0240FA
:10259C00003802402C31000840000020440000208C
:1025AC002DE9B04F94B000AF00237B640023FB6493
:1025BC0000233B640023BB64794B9B6803F00C0342
:1025CC00082B0DD0082B00F2E180002B02D0042B3D
:1025DC0003D0DBE0734BBB64DBE0734BBB64D8E034
:1025EC006F4B5B6803F03F037B646D4B5B6803F4DC
:1025FC008003002B63D06A4B5B689B090022BB6392
:10260C00FA63BB6BC3F308033B6300237B63D7E91B
:10261C000C4522462B464FF000004FF000015901AB
:10262C0041EAD261500102460B462146511A3961EA
:10263C00294663EB01037B614FF000024FF000036E
:10264C00D7E904AB59468B01514643EA9163514695
:10265C008A015146B2EB0108594663EB01094FF070
:10266C0000024FF000034FEAC90343EA58734FEAE4
:10267C00C80290469946234618EB0303BB602B46D1
:10268C0049EB0303FB604FF000024FF00003D7E966
:10269C00024529464B02214643EAD15321464A02C0
:1026AC00104619467B6C0022BB62FA62D7E90A23FA
:1026BC00FDF796FD02460B461346FB6458E0384B7B
:1026CC005B689B09002218461146C0F308033B6265
:1026DC0000237B62D7E9088942464B464FF0000045
:1026EC004FF00001590141EAD261500102460B46FC
:1026FC004146B2EB010A494663EB010B4FF0000275
:10270C004FF000034FEA8B1343EA9A634FEA8A12A5
:10271C00B2EB0A0463EB0B054FF000024FF0000321
:10272C00EB0043EA5473E20014461D464346E3189B
:10273C003B604B4645EB03037B604FF000024FF0D0
:10274C000003D7E9004529468B02214643EA915301
:10275C0021468A02104619467B6C0022BB61FA6145
:10276C00D7E90623FDF73CFD02460B461346FB64F6
:10277C000B4B5B681B0C03F0030301335B003B64E6
:10278C00FA6C3B6CB2FBF3F3BB6402E0054BBB642D
:10279C0000BFBB6C18465037BD46BDE8B08F00BFBC
:1027AC00003802400024F40000127A0080B582B098
:1027BC0000AF78607B68002B01D1012341E07B687E
:1027CC0093F83D30DBB2002B06D17B68002283F8F6
:1027DC003C207868FEF740FA7B68022283F83D20A3
:1027EC007B681A687B6804331946104600F096FA29
:1027FC007B68012283F846207B68012283F83E2007
:10280C007B68012283F83F207B68012283F84020FB
:10281C007B68012283F841207B68012283F84220E7
:10282C007B68012283F843207B68012283F84420D3
:10283C007B68012283F845207B68012283F83D20C8
:10284C00002318460837BD4680BD000080B485B013
:10285C0000AF78607B6893F83D30DBB2012B01D080
:10286C0001234EE07B68022283F83D207B681B68C5
:10287C00DA687B681B6842F00102DA607B681B68CF
:10288C00234A934222D07B681B68B3F1804F1DD042
:10289C007B681B681F4A934218D07B681B681E4AD2
:1028AC00934213D07B681B681C4A93420ED07B6802
:1028BC001B681B4A934209D07B681B68194A9342D8
:1028CC0004D07B681B68184A934211D17B681B6843
:1028DC009B6803F00703FB60FB68062B10D07B683A
:1028EC001B681A687B681B6842F001021A6007E0DB
:1028FC007B681B681A687B681B6842F001021A60CF
:10290C00002318461437BD465DF8047B704700BFA2
:10291C00000001400004004000080040000C004092
:10292C0000040140004001400018004080B582B016
:10293C0000AF78607B681B681B6903F00203022BF5
:10294C0022D17B681B68DB6803F00203022B1BD1CE
:10295C007B681B686FF002021A617B6801221A7790
:10296C007B681B689B6903F00303002B03D078681A
:10297C0000F0B5F905E0786800F0A7F9786800F088
:10298C00B8F97B6800221A777B681B681B6903F017
:10299C000403042B22D17B681B68DB6803F004035F
:1029AC00042B1BD17B681B686FF004021A617B68D7
:1029BC0002221A777B681B689B6903F44073002B17
:1029CC0003D0786800F08BF905E0786800F07DF9A9
:1029DC00786800F08EF97B6800221A777B681B6898
:1029EC001B6903F00803082B22D17B681B68DB688A
:1029FC0003F00803082B1BD17B681B686FF00802DF
:102A0C001A617B6804221A777B681B68DB6903F008
:102A1C000303002B03D0786800F061F905E07868B7
:102A2C0000F053F9786800F064F97B6800221A779B
:102A3C007B681B681B6903F01003102B22D17B6889
:102A4C001B68DB6803F01003102B1BD17B681B6821
:102A5C006FF010021A617B6808221A777B681B687A
:102A6C00DB6903F44073002B03D0786800F037F96E
:102A7C0005E0786800F029F9786800F03AF97B688D
:102A8C0000221A777B681B681B6903F00103012B7A
:102A9C000ED17B681B68DB6803F00103012B07D1A7
:102AAC007B681B686FF001021A617868FDF716FDF0
:102ABC007B681B681B6903F08003802B0ED17B683D
:102ACC001B68DB6803F08003802B07D17B681B68D5
:102ADC006FF080021A61786800F0E0FA7B681B687E
:102AEC001B6903F04003402B0ED17B681B68DB682D
:102AFC0003F04003402B07D17B681B686FF040024A
:102B0C001A61786800F0FFF87B681B681B6903F09A
:102B1C002003202B0ED17B681B68DB6803F020039D
:102B2C00202B07D17B681B686FF020021A61786834
:102B3C0000F0AAFA00BF0837BD4680BD80B584B04E
:102B4C0000AF786039600023FB737B6893F83C30EE
:102B5C00012B01D10223B4E07B68012283F83C20D5
:102B6C007B68022283F83D207B681B689B68BB60F6
:102B7C00BB6823F07703BB60BB6823F47F43BB6067
:102B8C007B681B68BA689A603B681B68B3F5005F8A
:102B9C003ED0B3F5005F00F28780B3F5805F00F0A4
:102BAC008680B3F5805F7FD8702B1AD0702B7BD8C2
:102BBC00602B50D0602B77D8502B3CD0502B73D837
:102BCC00402B58D0402B6FD8302B64D0302B6BD887
:102BDC00202B60D0202B67D8002B5CD0102B5AD028
:102BEC0062E07B6818683B6899683B685A683B6888
:102BFC00DB6800F0ADF97B681B689B68BB60BB6849
:102C0C0043F07703BB607B681B68BA689A604FE03F
:102C1C007B6818683B6899683B685A683B68DB6856
:102C2C0000F096F97B681B689A687B681B6842F415
:102C3C0080429A603CE07B6818683B6859683B6846
:102C4C00DB681A4600F00AF97B681B6850211846AD
:102C5C0000F063F92CE07B6818683B6859683B68A6
:102C6C00DB681A4600F029F97B681B68602118465E
:102C7C0000F053F91CE07B6818683B6859683B68A6
:102C8C00DB681A4600F0EAF87B681B68402118469E
:102C9C0000F043F90CE07B681A683B681B68194626
:102CAC00104600F03AF903E00123FB7300E000BF8B
:102CBC007B68012283F83D207B68002283F83C204E
:102CCC00FB7B18461037BD4680BD80B483B000AF87
:102CDC00786000BF0C37BD465DF8047B704780B44C
:102CEC0083B000AF786000BF0C37BD465DF8047B45
:102CFC00704780B483B000AF786000BF0C37BD461E
:102D0C005DF8047B704780B483B000AF786000BF7F
:102D1C000C37BD465DF8047B7047000080B485B06D
:102D2C0000AF786039607B681B68FB607B68404A49
:102D3C00934213D07B68B3F1804F0FD07B683D4A30
:102D4C0093420BD07B683C4A934207D07B683B4A4A
:102D5C00934203D07B683A4A934208D1FB6823F034
:102D6C007003FB603B685B68FA681343FB607B682D
:102D7C002F4A93422BD07B68B3F1804F27D07B68CE
:102D8C002C4A934223D07B682B4A93421FD07B68FA
:102D9C002A4A93421BD07B68294A934217D07B68FE
:102DAC00284A934213D07B68274A93420FD07B6802
:102DBC00264A93420BD07B68254A934207D07B6806
:102DCC00244A934203D07B68234A934208D1FB6880
:102DDC0023F44073FB603B68DB68FA681343FB60C9
:102DEC00FB6823F080023B685B691343FB607B68E4
:102DFC00FA681A603B689A687B68DA623B681A6802
:102E0C007B689A627B680A4A934203D07B680C4ABF
:102E1C00934203D13B681A697B681A637B68012271
:102E2C005A6100BF1437BD465DF8047B704700BF84
:102E3C00000001400004004000080040000C00406D
:102E4C0000040140004001400044014000480140A2
:102E5C0000180040001C00400020004080B487B0E7
:102E6C0000AFF860B9607A60FB681B6A7B61FB6835
:102E7C001B6A23F00102FB681A62FB689B693B61C9
:102E8C003B6923F0F0033B617B681B013A691343F8
:102E9C003B617B6923F00A037B617A69BB6813434E
:102EAC007B61FB683A699A61FB687A691A6200BFB8
:102EBC001C37BD465DF8047B704780B487B000AF0B
:102ECC00F860B9607A60FB681B6A23F01002FB683B
:102EDC001A62FB689B697B61FB681B6A3B617B69BF
:102EEC0023F470437B617B681B037A6913437B611A
:102EFC003B6923F0A0033B61BB681B013A69134398
:102F0C003B61FB687A699A61FB683A691A6200BF97
:102F1C001C37BD465DF8047B704780B485B000AFAC
:102F2C00786039607B689B68FB60FB6823F07003FA
:102F3C00FB603A68FB68134343F00703FB607B6854
:102F4C00FA689A6000BF1437BD465DF8047B704781
:102F5C0080B487B000AFF860B9607A603B60FB6802
:102F6C009B687B617B6923F47F437B613B681A021E
:102F7C007B681A43BB6813437A6913437B61FB6814
:102F8C007A699A6000BF1C37BD465DF8047B7047B8
:102F9C0080B485B000AF786039607B6893F83C30C2
:102FAC00012B01D102235AE07B68012283F83C20DB
:102FBC007B68022283F83D207B681B685B68FB60A2
:102FCC007B681B689B68BB60FB6823F07003FB602D
:102FDC003B681B68FA681343FB607B681B68FA68E4
:102FEC005A607B681B68214A934222D07B681B681D
:102FFC00B3F1804F1DD07B681B681D4A934218D0DB
:10300C007B681B681B4A934213D07B681B681A4A67
:10301C0093420ED07B681B68184A934209D07B6898
:10302C001B68174A934204D07B681B68154A93426D
:10303C000CD1BB6823F08003BB603B685B68BA684B
:10304C001343BB607B681B68BA689A607B6801227B
:10305C0083F83D207B68002283F83C20002318462F
:10306C001437BD465DF8047B704700BF000001407B
:10307C000004004000080040000C00400004014027
:10308C00004001400018004080B483B000AF78606D
:10309C0000BF0C37BD465DF8047B704780B483B02D
:1030AC0000AF786000BF0C37BD465DF8047B7047FD
:1030BC0002440346934200D1704703F8011BF9E721
:1030CC0070B50D4D0D4C641BA4100026A64209D101
:1030DC000B4D0C4C00F018F8641BA4100026A642F3
:1030EC0005D170BD55F8043B98470136EEE755F80D
:1030FC00043B98470136F2E744310008443100089C
:10310C004431000848310008F8B500BFF8BC08BCD1
:10311C009E467047F8B500BFF8BC08BC9E46704789
:10312C00000000000000000001020304060708096B
:08313C00E0D0FF7F010000005C
:04314400D1010008AD
:04314800AD010008CD
:10314C000000000000000000000000000000000073
:10315C00000000000000000000000000102700002C
:10316C000000000000000000000000000000000053
:10317C000000000000000000000000000000000043
:0C318C000024F40010000000010000000E
:0400000508000D657D
:00000001FF
